02RETORNO01COBRANCA       006100198677        WEEL BSD Fomento Mercantil Ltd341BANCO ITAU SA  100620                                                                                                                                                                                                                                                                                                      000001
10224127816000149006100198677                                 00004618            109000046187             I02100620135239|1/100004618            07062000000017411700013421505000000000000000000000000000000000000000000000000000000000000000000000000000000000000174117000000000000000000000000000   10062000000000000000000000000SUMATEX PRODUTOS QUIMICOS LTDA                                      B3000001
10224127816000149006100198677                                 00004617            109000046177             I02100620135238|1/100004617            07062000000022168000013421505000000000000000000000000000000000000000000000000000000000000000000000000000000000000221680000000000000000000000000000   10062000000000000000000000000SUMATEX PRODUTOS QUIMICOS LTDA                                      B3000002
10224127816000149006100198677                                 00006737            109000067377             I02100620338623119|00006737            00000000000003134330013421505000000000000000000000000000000000000000000000000000000000000000000000000000000000000031343300000000000000000000000000   10062000000000000000000000000SAUL GUZ S/C AUDITORES INDEPEN                                      B3000003
10224127816000149006100198677                                 00006502            109000065027             I02100620594294725|00006502            00000000000001044780013421505000000000000000000000000000000000000000000000000000000000000000000000000000000000000010447800000000000000000000000000   10062000000000000000000000000SAUL GUZ S/C AUDITORES INDEPEN                                      B3000004
10224127816000149006100198677                                 00006509            109000065097             I02100620975075011|00006509            00000000000001044780013421505000000000000000000000000000000000000000000000000000000000000000000000000000000000000010447800000000000000000000000000   10062000000000000000000000000SAUL GUZ S/C AUDITORES INDEPEN                                      B3000005
10224127816000149006100198677                                 00006249            109000062497             I02100620209834353|00006249            00000000000001044780013421505000000000000000000000000000000000000000000000000000000000000000000000000000000000000010447800000000000000000000000000   10062000000000000000000000000Test Buyer1                                                         B3000006
10224127816000149006100198677                                 00006300            109000063007             I02100620245211893|00006300            00000000000003134330013421505000000000000000000000000000000000000000000000000000000000000000000000000000000000000031343300000000000000000000000000   10062000000000000000000000000SAUL GUZ S/C AUDITORES INDEPEN                                      B3000007
10224127816000149006100198677                                 00006244            109000062447             I02100620544254471|00006244            00000000000003134330013421505000000000000000000000000000000000000000000000000000000000000000000000000000000000000031343300000000000000000000000000   10062000000000000000000000000SAUL GUZ S/C AUDITORES INDEPEN                                      B3000008
10224127816000149006100198677                                 00006235            109000062357             I02100620714419982|00006235            00000000000001044780013421505000000000000000000000000000000000000000000000000000000000000000000000000000000000000010447800000000000000000000000000   10062000000000000000000000000SAUL GUZ S/C AUDITORES INDEPEN                                      B3000009
10224127816000149006100198677                                 00006514            109000065147             I02100620481847372|00006514            00000000000001044780013421505000000000000000000000000000000000000000000000000000000000000000000000000000000000000010447800000000000000000000000000   10062000000000000000000000000SAUL GUZ S/C AUDITORES INDEPEN                                      B3000010
10224127816000149006100198677                                 00006245            109000062457             I02100620593696508|00006245            00000000000001044780013421505000000000000000000000000000000000000000000000000000000000000000000000000000000000000010447800000000000000000000000000   10062000000000000000000000000Test Buyer1                                                         B3000011
10224127816000149006100198677                                 00006504            109000065047             I02100620688422703|00006504            00000000000001044780013421505000000000000000000000000000000000000000000000000000000000000000000000000000000000000010447800000000000000000000000000   10062000000000000000000000000SAUL GUZ S/C AUDITORES INDEPEN                                      B3000012
10224127816000149006100198677                                 00006252            109000062527             I02100620831180191|00006252            00000000000003134330013421505000000000000000000000000000000000000000000000000000000000000000000000000000000000000031343300000000000000000000000000   10062000000000000000000000000SAUL GUZ S/C AUDITORES INDEPEN                                      B3000013
10224127816000149006100198677                                 00006267            109000062677             I02100620425719378|00006267            00000000000001044780013421505000000000000000000000000000000000000000000000000000000000000000000000000000000000000010447800000000000000000000000000   10062000000000000000000000000SAUL GUZ S/C AUDITORES INDEPEN                                      B3000014
10224127816000149006100198677                                 00006508            109000065087             I02100620860351718|00006508            00000000000001044780013421505000000000000000000000000000000000000000000000000000000000000000000000000000000000000010447800000000000000000000000000   10062000000000000000000000000SAUL GUZ S/C AUDITORES INDEPEN                                      B3000015
10224127816000149006100198677                                 00006296            109000062967             I0210062057578671|100006296            00000000000003134330013421505000000000000000000000000000000000000000000000000000000000000000000000000000000000000031343300000000000000000000000000   10062000000000000000000000000SAUL GUZ S/C AUDITORES INDEPEN                                      B3000016
10224127816000149006100198677                                 00006503            109000065037             I02100620265755177|00006503            00000000000001044780013421505000000000000000000000000000000000000000000000000000000000000000000000000000000000000010447800000000000000000000000000   10062000000000000000000000000SAUL GUZ S/C AUDITORES INDEPEN                                      B3000017
10224127816000149006100198677                                 00006253            109000062537             I02100620890662701|00006253            00000000000001044780013421505000000000000000000000000000000000000000000000000000000000000000000000000000000000000010447800000000000000000000000000   10062000000000000000000000000Test Buyer1                                                         B3000018
10224127816000149006100198677                                 00006299            109000062997             I02100620637684712|00006299            00000000000001044780013421505000000000000000000000000000000000000000000000000000000000000000000000000000000000000010447800000000000000000000000000   10062000000000000000000000000SAUL GUZ S/C AUDITORES INDEPEN                                      B3000019
10224127816000149006100198677                                 00006297            109000062977             I02100620688992196|00006297            00000000000001044780013421505000000000000000000000000000000000000000000000000000000000000000000000000000000000000010447800000000000000000000000000   10062000000000000000000000000Test Buyer1                                                         B3000020
10224127816000149006100198677                                 00006271            109000062717             I0210062072891253|100006271            00000000000001044780013421505000000000000000000000000000000000000000000000000000000000000000000000000000000000000010447800000000000000000000000000   10062000000000000000000000000SAUL GUZ S/C AUDITORES INDEPEN                                      B3000021
10224127816000149006100198677                                 00006515            109000065157             I02100620586531543|00006515            00000000000001044780013421505000000000000000000000000000000000000000000000000000000000000000000000000000000000000010447800000000000000000000000000   10062000000000000000000000000SAUL GUZ S/C AUDITORES INDEPEN                                      B3000022
10224127816000149006100198677                                 00006519            109000065197             I02100620690783900|00006519            00000000000001044780013421505000000000000000000000000000000000000000000000000000000000000000000000000000000000000010447800000000000000000000000000   10062000000000000000000000000SAUL GUZ S/C AUDITORES INDEPEN                                      B3000023
10224127816000149006100198677                                 00006505            109000065057             I0210062032364602|100006505            00000000000001044780013421505000000000000000000000000000000000000000000000000000000000000000000000000000000000000010447800000000000000000000000000   10062000000000000000000000000SAUL GUZ S/C AUDITORES INDEPEN                                      B3000024
10224127816000149006100198677                                 00006736            109000067367             I02100620204630993|00006736            00000000000003134330013421505000000000000000000000000000000000000000000000000000000000000000000000000000000000000031343300000000000000000000000000   10062000000000000000000000000SAUL GUZ S/C AUDITORES INDEPEN                                      B3000025
10224127816000149006100198677                                 00006231            109000062317             I02100620365674006|00006231            00000000000001044780013421505000000000000000000000000000000000000000000000000000000000000000000000000000000000000010447800000000000000000000000000   10062000000000000000000000000SAUL GUZ S/C AUDITORES INDEPEN                                      B3000026
10224127816000149006100198677                                 00006248            109000062487             I02100620438504244|00006248            00000000000003134330013421505000000000000000000000000000000000000000000000000000000000000000000000000000000000000031343300000000000000000000000000   10062000000000000000000000000SAUL GUZ S/C AUDITORES INDEPEN                                      B3000027
10224127816000149006100198677                                 00006285            109000062857             I02100620488543648|00006285            00000000000001044780013421505000000000000000000000000000000000000000000000000000000000000000000000000000000000000010447800000000000000000000000000   10062000000000000000000000000Test Buyer1                                                         B3000028
10224127816000149006100198677                                 00006292            109000062927             I02100620284487475|00006292            00000000000003134330013421505000000000000000000000000000000000000000000000000000000000000000000000000000000000000031343300000000000000000000000000   10062000000000000000000000000SAUL GUZ S/C AUDITORES INDEPEN                                      B3000029
10224127816000149006100198677                                 00006229            109000062297             I02100620534378190|00006229            00000000000001044780013421505000000000000000000000000000000000000000000000000000000000000000000000000000000000000010447800000000000000000000000000   10062000000000000000000000000Test Buyer1                                                         B3000030
10224127816000149006100198677                                 00006264            109000062647             I02100620863876829|00006264            00000000000003134330013421505000000000000000000000000000000000000000000000000000000000000000000000000000000000000031343300000000000000000000000000   10062000000000000000000000000SAUL GUZ S/C AUDITORES INDEPEN                                      B3000031
10224127816000149006100198677                                 00006510            109000065107             I02100620916005469|00006510            00000000000001044780013421505000000000000000000000000000000000000000000000000000000000000000000000000000000000000010447800000000000000000000000000   10062000000000000000000000000SAUL GUZ S/C AUDITORES INDEPEN                                      B3000032
10224127816000149006100198677                                 00006251            109000062517             I02100620789668377|00006251            00000000000001044780013421505000000000000000000000000000000000000000000000000000000000000000000000000000000000000010447800000000000000000000000000   10062000000000000000000000000SAUL GUZ S/C AUDITORES INDEPEN                                      B3000033
10224127816000149006100198677                                 00006301            109000063017             I02100620467740460|00006301            00000000000001044780013421505000000000000000000000000000000000000000000000000000000000000000000000000000000000000010447800000000000000000000000000   10062000000000000000000000000Test Buyer1                                                         B3000034
10224127816000149006100198677                                 00006228            109000062287             I02100620619861440|00006228            00000000000003134330013421505000000000000000000000000000000000000000000000000000000000000000000000000000000000000031343300000000000000000000000000   10062000000000000000000000000SAUL GUZ S/C AUDITORES INDEPEN                                      B3000035
10224127816000149006100198677                                 00006232            109000062327             I02100620162014947|00006232            00000000000003134330013421505000000000000000000000000000000000000000000000000000000000000000000000000000000000000031343300000000000000000000000000   10062000000000000000000000000SAUL GUZ S/C AUDITORES INDEPEN                                      B3000036
10224127816000149006100198677                                 00006280            109000062807             I02100620626092851|00006280            00000000000003134330013421505000000000000000000000000000000000000000000000000000000000000000000000000000000000000031343300000000000000000000000000   10062000000000000000000000000SAUL GUZ S/C AUDITORES INDEPEN                                      B3000037
10224127816000149006100198677                                 00006518            109000065187             I02100620608436420|00006518            00000000000001044780013421505000000000000000000000000000000000000000000000000000000000000000000000000000000000000010447800000000000000000000000000   10062000000000000000000000000SAUL GUZ S/C AUDITORES INDEPEN                                      B3000038
10224127816000149006100198677                                 00006512            109000065127             I02100620500798953|00006512            00000000000001044780013421505000000000000000000000000000000000000000000000000000000000000000000000000000000000000010447800000000000000000000000000   10062000000000000000000000000SAUL GUZ S/C AUDITORES INDEPEN                                      B3000039
10224127816000149006100198677                                 00006247            109000062477             I02100620326288908|00006247            00000000000001044780013421505000000000000000000000000000000000000000000000000000000000000000000000000000000000000010447800000000000000000000000000   10062000000000000000000000000SAUL GUZ S/C AUDITORES INDEPEN                                      B3000040
10224127816000149006100198677                                 00006506            109000065067             I02100620482362403|00006506            00000000000001044780013421505000000000000000000000000000000000000000000000000000000000000000000000000000000000000010447800000000000000000000000000   10062000000000000000000000000SAUL GUZ S/C AUDITORES INDEPEN                                      B3000041
10224127816000149006100198677                                 00006281            109000062817             I02100620471974506|00006281            00000000000001044780013421505000000000000000000000000000000000000000000000000000000000000000000000000000000000000010447800000000000000000000000000   10062000000000000000000000000Test Buyer1                                                         B3000042
10224127816000149006100198677                                 00006295            109000062957             I02100620232929556|00006295            00000000000001044780013421505000000000000000000000000000000000000000000000000000000000000000000000000000000000000010447800000000000000000000000000   10062000000000000000000000000SAUL GUZ S/C AUDITORES INDEPEN                                      B3000043
10224127816000149006100198677                                 00006511            109000065117             I02100620458627879|00006511            00000000000001044780013421505000000000000000000000000000000000000000000000000000000000000000000000000000000000000010447800000000000000000000000000   10062000000000000000000000000SAUL GUZ S/C AUDITORES INDEPEN                                      B3000044
10224127816000149006100198677                                 00006303            109000063037             I02100620226006773|00006303            00000000000001044780013421505000000000000000000000000000000000000000000000000000000000000000000000000000000000000010447800000000000000000000000000   10062000000000000000000000000SAUL GUZ S/C AUDITORES INDEPEN                                      B3000045
10224127816000149006100198677                                 00006517            109000065177             I02100620192808664|00006517            00000000000001044780013421505000000000000000000000000000000000000000000000000000000000000000000000000000000000000010447800000000000000000000000000   10062000000000000000000000000SAUL GUZ S/C AUDITORES INDEPEN                                      B3000046
10224127816000149006100198677                                 00006501            109000065017             I0210062027878461|100006501            00000000000001044780013421505000000000000000000000000000000000000000000000000000000000000000000000000000000000000010447800000000000000000000000000   10062000000000000000000000000SAUL GUZ S/C AUDITORES INDEPEN                                      B3000047
10224127816000149006100198677                                 00006287            109000062877             I02100620657539969|00006287            00000000000001044780013421505000000000000000000000000000000000000000000000000000000000000000000000000000000000000010447800000000000000000000000000   10062000000000000000000000000SAUL GUZ S/C AUDITORES INDEPEN                                      B3000048
10224127816000149006100198677                                 00006521            109000065217             I02100620213682579|00006521            00000000000001044780013421505000000000000000000000000000000000000000000000000000000000000000000000000000000000000010447800000000000000000000000000   10062000000000000000000000000SAUL GUZ S/C AUDITORES INDEPEN                                      B3000049
10224127816000149006100198677                                 00006283            109000062837             I0210062028222058|100006283            00000000000001044780013421505000000000000000000000000000000000000000000000000000000000000000000000000000000000000010447800000000000000000000000000   10062000000000000000000000000SAUL GUZ S/C AUDITORES INDEPEN                                      B3000050
10224127816000149006100198677                                 00006522            109000065227             I02100620542514150|00006522            00000000000001044780013421505000000000000000000000000000000000000000000000000000000000000000000000000000000000000010447800000000000000000000000000   10062000000000000000000000000SAUL GUZ S/C AUDITORES INDEPEN                                      B3000051
10224127816000149006100198677                                 00006516            109000065167             I02100620165219827|00006516            00000000000001044780013421505000000000000000000000000000000000000000000000000000000000000000000000000000000000000010447800000000000000000000000000   10062000000000000000000000000SAUL GUZ S/C AUDITORES INDEPEN                                      B3000052
10224127816000149006100198677                                 00006507            109000065077             I02100620802715650|00006507            00000000000001044780013421505000000000000000000000000000000000000000000000000000000000000000000000000000000000000010447800000000000000000000000000   10062000000000000000000000000SAUL GUZ S/C AUDITORES INDEPEN                                      B3000053
10224127816000149006100198677                                 00006255            109000062557             I02100620976405750|00006255            00000000000001044780013421505000000000000000000000000000000000000000000000000000000000000000000000000000000000000010447800000000000000000000000000   10062000000000000000000000000SAUL GUZ S/C AUDITORES INDEPEN                                      B3000054
10224127816000149006100198677                                 00006265            109000062657             I0210062045695021|100006265            00000000000001044780013421505000000000000000000000000000000000000000000000000000000000000000000000000000000000000010447800000000000000000000000000   10062000000000000000000000000Test Buyer1                                                         B3000055
10224127816000149006100198677                                 00006293            109000062937             I02100620645315876|00006293            00000000000001044780013421505000000000000000000000000000000000000000000000000000000000000000000000000000000000000010447800000000000000000000000000   10062000000000000000000000000Test Buyer1                                                         B3000056
10224127816000149006100198677                                 00006513            109000065137             I02100620569120947|00006513            00000000000001044780013421505000000000000000000000000000000000000000000000000000000000000000000000000000000000000010447800000000000000000000000000   10062000000000000000000000000SAUL GUZ S/C AUDITORES INDEPEN                                      B3000057
10224127816000149006100198677                                 00006268            109000062687             I02100620744174714|00006268            00000000000003134330013421505000000000000000000000000000000000000000000000000000000000000000000000000000000000000031343300000000000000000000000000   10062000000000000000000000000SAUL GUZ S/C AUDITORES INDEPEN                                      B3000058
10224127816000149006100198677                                 00006269            109000062697             I02100620280452162|00006269            00000000000001044780013421505000000000000000000000000000000000000000000000000000000000000000000000000000000000000010447800000000000000000000000000   10062000000000000000000000000Test Buyer1                                                         B3000059
10224127816000149006100198677                                 00006284            109000062847             I02100620363112557|00006284            00000000000003134330013421505000000000000000000000000000000000000000000000000000000000000000000000000000000000000031343300000000000000000000000000   10062000000000000000000000000SAUL GUZ S/C AUDITORES INDEPEN                                      B3000060
10224127816000149006100198677                                 00006233            109000062337             I02100620531966991|00006233            00000000000001044780013421505000000000000000000000000000000000000000000000000000000000000000000000000000000000000010447800000000000000000000000000   10062000000000000000000000000Test Buyer1                                                         B3000061
10224127816000149006100198677                                 00006520            109000065207             I0210062050175521|100006520            00000000000001044780013421505000000000000000000000000000000000000000000000000000000000000000000000000000000000000010447800000000000000000000000000   10062000000000000000000000000SAUL GUZ S/C AUDITORES INDEPEN                                      B3000062
10224127816000149006100198677                                 00006740            109000067407             I02100620418055654|00006740            30062000000001044770013421505000000000000000000000000000000000000000000000000000000000000000000000000000000000000010447700000000000000000000000000   10062000000000000000000000000SAUL GUZ S/C AUDITORES INDEPEN                                      B3000063
22010720200000000000080                                                           109                      I02100620                                                 0013421505000000000000000000000000000000000000000000000000000000000000000000000000000000             00000000000000000000000000   10062000000000000000000000000                                                                    B3000064
10224127816000149006100198677                                 00006741            109000067417             I02100620480751442|00006741            30062000000001044770013421505000000000000000000000000000000000000000000000000000000000000000000000000000000000000010447700000000000000000000000000   10062000000000000000000000000SAUL GUZ S/C AUDITORES INDEPEN                                      B3000065
22010720200000000000080                                                           109                      I02100620                                                 0013421505000000000000000000000000000000000000000000000000000000000000000000000000000000             00000000000000000000000000   10062000000000000000000000000                                                                    B3000066
10224127816000149006100198677                                 00006742            109000067427             I02100620683203595|00006742            30062000000001044770013421505000000000000000000000000000000000000000000000000000000000000000000000000000000000000010447700000000000000000000000000   10062000000000000000000000000SAUL GUZ S/C AUDITORES INDEPEN                                      B3000067
22010720200000000000080                                                           109                      I02100620                                                 0013421505000000000000000000000000000000000000000000000000000000000000000000000000000000             00000000000000000000000000   10062000000000000000000000000                                                                    B3000068
10224127816000149006100198677                                 00006743            109000067437             I02100620412544237|00006743            30062000000001044770013421505000000000000000000000000000000000000000000000000000000000000000000000000000000000000010447700000000000000000000000000   10062000000000000000000000000SAUL GUZ S/C AUDITORES INDEPEN                                      B3000069
22010720200000000000080                                                           109                      I02100620                                                 0013421505000000000000000000000000000000000000000000000000000000000000000000000000000000             00000000000000000000000000   10062000000000000000000000000                                                                    B3000070
10224127816000149006100198677                                 00006744            109000067447             I02100620229431944|00006744            30062000000001044770013421505000000000000000000000000000000000000000000000000000000000000000000000000000000000000010447700000000000000000000000000   10062000000000000000000000000SAUL GUZ S/C AUDITORES INDEPEN                                      B3000071
22010720200000000000080                                                           109                      I02100620                                                 0013421505000000000000000000000000000000000000000000000000000000000000000000000000000000             00000000000000000000000000   10062000000000000000000000000                                                                    B3000072
10224127816000149006100198677                                 00006745            109000067457             I02100620877256488|00006745            30062000000001044770013421505000000000000000000000000000000000000000000000000000000000000000000000000000000000000010447700000000000000000000000000   10062000000000000000000000000SAUL GUZ S/C AUDITORES INDEPEN                                      B3000073
22010720200000000000080                                                           109                      I02100620                                                 0013421505000000000000000000000000000000000000000000000000000000000000000000000000000000             00000000000000000000000000   10062000000000000000000000000                                                                    B3000074
10224127816000149006100198677                                 00006746            109000067467             I02100620284516175|00006746            30062000000001044770013421505000000000000000000000000000000000000000000000000000000000000000000000000000000000000010447700000000000000000000000000   10062000000000000000000000000SAUL GUZ S/C AUDITORES INDEPEN                                      B3000075
22010720200000000000080                                                           109                      I02100620                                                 0013421505000000000000000000000000000000000000000000000000000000000000000000000000000000             00000000000000000000000000   10062000000000000000000000000                                                                    B3000076
10224127816000149006100198677                                 00006747            109000067477             I02100620386535051|00006747            30062000000001044770013421505000000000000000000000000000000000000000000000000000000000000000000000000000000000000010447700000000000000000000000000   10062000000000000000000000000SAUL GUZ S/C AUDITORES INDEPEN                                      B3000077
22010720200000000000080                                                           109                      I02100620                                                 0013421505000000000000000000000000000000000000000000000000000000000000000000000000000000             00000000000000000000000000   10062000000000000000000000000                                                                    B3000078
10224127816000149006100198677                                 00006748            109000067487             I02100620912456906|00006748            30062000000001044770013421505000000000000000000000000000000000000000000000000000000000000000000000000000000000000010447700000000000000000000000000   10062000000000000000000000000SAUL GUZ S/C AUDITORES INDEPEN                                      B3000079
22010720200000000000080                                                           109                      I02100620                                                 0013421505000000000000000000000000000000000000000000000000000000000000000000000000000000             00000000000000000000000000   10062000000000000000000000000                                                                    B3000080
10224127816000149006100198677                                 00006749            109000067497             I02100620907390144|00006749            30062000000001044770013421505000000000000000000000000000000000000000000000000000000000000000000000000000000000000010447700000000000000000000000000   10062000000000000000000000000SAUL GUZ S/C AUDITORES INDEPEN                                      B3000081
22010720200000000000080                                                           109                      I02100620                                                 0013421505000000000000000000000000000000000000000000000000000000000000000000000000000000             00000000000000000000000000   10062000000000000000000000000                                                                    B3000082
10224127816000149006100198677                                 00006750            109000067507             I02100620332326000|00006750            30062000000001044770013421505000000000000000000000000000000000000000000000000000000000000000000000000000000000000010447700000000000000000000000000   10062000000000000000000000000SAUL GUZ S/C AUDITORES INDEPEN                                      B3000083
22010720200000000000080                                                           109                      I02100620                                                 0013421505000000000000000000000000000000000000000000000000000000000000000000000000000000             00000000000000000000000000   10062000000000000000000000000                                                                    B3000084
10224127816000149006100198677                                 00006751            109000067517             I02100620975567671|00006751            30062000000001044770013421505000000000000000000000000000000000000000000000000000000000000000000000000000000000000010447700000000000000000000000000   10062000000000000000000000000SAUL GUZ S/C AUDITORES INDEPEN                                      B3000085
22010720200000000000080                                                           109                      I02100620                                                 0013421505000000000000000000000000000000000000000000000000000000000000000000000000000000             00000000000000000000000000   10062000000000000000000000000                                                                    B3000086
10224127816000149006100198677                                 00006752            109000067527             I02100620641142573|00006752            30062000000001044770013421505000000000000000000000000000000000000000000000000000000000000000000000000000000000000010447700000000000000000000000000   10062000000000000000000000000SAUL GUZ S/C AUDITORES INDEPEN                                      B3000087
22010720200000000000080                                                           109                      I02100620                                                 0013421505000000000000000000000000000000000000000000000000000000000000000000000000000000             00000000000000000000000000   10062000000000000000000000000                                                                    B3000088
10224127816000149006100198677                                 00006753            109000067537             I02100620340835668|00006753            30062000000001044770013421505000000000000000000000000000000000000000000000000000000000000000000000000000000000000010447700000000000000000000000000   10062000000000000000000000000SAUL GUZ S/C AUDITORES INDEPEN                                      B3000089
22010720200000000000080                                                           109                      I02100620                                                 0013421505000000000000000000000000000000000000000000000000000000000000000000000000000000             00000000000000000000000000   10062000000000000000000000000                                                                    B3000090
10224127816000149006100198677                                 00006754            109000067547             I02100620307456326|00006754            30062000000001044770013421505000000000000000000000000000000000000000000000000000000000000000000000000000000000000010447700000000000000000000000000   10062000000000000000000000000SAUL GUZ S/C AUDITORES INDEPEN                                      B3000091
22010720200000000000080                                                           109                      I02100620                                                 0013421505000000000000000000000000000000000000000000000000000000000000000000000000000000             00000000000000000000000000   10062000000000000000000000000                                                                    B3000092
10224127816000149006100198677                                 00006755            109000067557             I02100620596672187|00006755            30062000000001044770013421505000000000000000000000000000000000000000000000000000000000000000000000000000000000000010447700000000000000000000000000   10062000000000000000000000000SAUL GUZ S/C AUDITORES INDEPEN                                      B3000093
22010720200000000000080                                                           109                      I02100620                                                 0013421505000000000000000000000000000000000000000000000000000000000000000000000000000000             00000000000000000000000000   10062000000000000000000000000                                                                    B3000094
10224127816000149006100198677                                 00006756            109000067567             I02100620928669722|00006756            30062000000001044770013421505000000000000000000000000000000000000000000000000000000000000000000000000000000000000010447700000000000000000000000000   10062000000000000000000000000SAUL GUZ S/C AUDITORES INDEPEN                                      B3000095
22010720200000000000080                                                           109                      I02100620                                                 0013421505000000000000000000000000000000000000000000000000000000000000000000000000000000             00000000000000000000000000   10062000000000000000000000000                                                                    B3000096
10224127816000149006100198677                                 00006757            109000067577             I02100620803777002|00006757            30062000000001044770013421505000000000000000000000000000000000000000000000000000000000000000000000000000000000000010447700000000000000000000000000   10062000000000000000000000000SAUL GUZ S/C AUDITORES INDEPEN                                      B3000097
22010720200000000000080                                                           109                      I02100620                                                 0013421505000000000000000000000000000000000000000000000000000000000000000000000000000000             00000000000000000000000000   10062000000000000000000000000                                                                    B3000098
10224127816000149006100198677                                 00006758            109000067587             I02100620881739494|00006758            30062000000001044770013421505000000000000000000000000000000000000000000000000000000000000000000000000000000000000010447700000000000000000000000000   10062000000000000000000000000SAUL GUZ S/C AUDITORES INDEPEN                                      B3000099
22010720200000000000080                                                           109                      I02100620                                                 0013421505000000000000000000000000000000000000000000000000000000000000000000000000000000             00000000000000000000000000   10062000000000000000000000000                                                                    B3000100
10224127816000149006100198677                                 00006759            109000067597             I02100620100|372/9900006759            30062000000000100000013421505000000000000000000000000000000000000000000000000000000000000000000000000000000000000001000000000000000000000000000000   10062000000000000000000000000SAUL GUZ S/C AUDITORES INDEPEN                                      B3000101
22010720200000000000080                                                           109                      I02100620                                                 0013421505000000000000000000000000000000000000000000000000000000000000000000000000000000             00000000000000000000000000   10062000000000000000000000000                                                                    B3000102
10224127816000149006100198677                                 00006760            109000067607             I021006205151|2/4  00006760            30062000000002969130013421505000000000000000000000000000000000000000000000000000000000000000000000000000000000000029691300000000000000000000000000   10062000000000000000000000000SAUL GUZ S/C AUDITORES INDEPEN                                      B3000103
22010720200000000000080                                                           109                      I02100620                                                 0013421505000000000000000000000000000000000000000000000000000000000000000000000000000000             00000000000000000000000000   10062000000000000000000000000                                                                    B3000104
10224127816000149006100198677                                 00006761            109000067617             I02100620981336789|00006761            30062000000001044770013421505000000000000000000000000000000000000000000000000000000000000000000000000000000000000010447700000000000000000000000000   10062000000000000000000000000SAUL GUZ S/C AUDITORES INDEPEN                                      B3000105
22010720200000000000120                                                           109                      I02100620                                                 0013421505000000000000000000000000000000000000000000000000000000000000000000000000000000             00000000000000000000000000   10062000000000000000000000000                                                                    B3000106
10224127816000149006100198677                                 00006762            109000067627             I02100620160934228|00006762            30062000000001044770013421505000000000000000000000000000000000000000000000000000000000000000000000000000000000000010447700000000000000000000000000   10062000000000000000000000000SAUL GUZ S/C AUDITORES INDEPEN                                      B3000107
22010720200000000000120                                                           109                      I02100620                                                 0013421505000000000000000000000000000000000000000000000000000000000000000000000000000000             00000000000000000000000000   10062000000000000000000000000                                                                    B3000108
10224127816000149006100198677                                 00006763            109000067637             I02100620858062510|00006763            30062000000001044770013421505000000000000000000000000000000000000000000000000000000000000000000000000000000000000010447700000000000000000000000000   10062000000000000000000000000SAUL GUZ S/C AUDITORES INDEPEN                                      B3000109
22010720200000000000120                                                           109                      I02100620                                                 0013421505000000000000000000000000000000000000000000000000000000000000000000000000000000             00000000000000000000000000   10062000000000000000000000000                                                                    B3000110
10224127816000149006100198677                                 00006764            109000067647             I02100620926722312|00006764            30062000000001044770013421505000000000000000000000000000000000000000000000000000000000000000000000000000000000000010447700000000000000000000000000   10062000000000000000000000000SAUL GUZ S/C AUDITORES INDEPEN                                      B3000111
22010720200000000000120                                                           109                      I02100620                                                 0013421505000000000000000000000000000000000000000000000000000000000000000000000000000000             00000000000000000000000000   10062000000000000000000000000                                                                    B3000112
10224127816000149006100198677                                 00006765            109000067657             I02100620805769937|00006765            30062000000001044770013421505000000000000000000000000000000000000000000000000000000000000000000000000000000000000010447700000000000000000000000000   10062000000000000000000000000SAUL GUZ S/C AUDITORES INDEPEN                                      B3000113
22010720200000000000120                                                           109                      I02100620                                                 0013421505000000000000000000000000000000000000000000000000000000000000000000000000000000             00000000000000000000000000   10062000000000000000000000000                                                                    B3000114
10224127816000149006100198677                                 00006766            109000067667             I02100620827714611|00006766            30062000000001044770013421505000000000000000000000000000000000000000000000000000000000000000000000000000000000000010447700000000000000000000000000   10062000000000000000000000000SAUL GUZ S/C AUDITORES INDEPEN                                      B3000115
22010720200000000000120                                                           109                      I02100620                                                 0013421505000000000000000000000000000000000000000000000000000000000000000000000000000000             00000000000000000000000000   10062000000000000000000000000                                                                    B3000116
10224127816000149006100198677                                 00006767            109000067677             I02100620296199342|00006767            30062000000001044770013421505000000000000000000000000000000000000000000000000000000000000000000000000000000000000010447700000000000000000000000000   10062000000000000000000000000SAUL GUZ S/C AUDITORES INDEPEN                                      B3000117
22010720200000000000120                                                           109                      I02100620                                                 0013421505000000000000000000000000000000000000000000000000000000000000000000000000000000             00000000000000000000000000   10062000000000000000000000000                                                                    B3000118
10224127816000149006100198677                                 00006768            109000067687             I0210062013581349|300006768            30062000000001044770013421505000000000000000000000000000000000000000000000000000000000000000000000000000000000000010447700000000000000000000000000   10062000000000000000000000000SAUL GUZ S/C AUDITORES INDEPEN                                      B3000119
22010720200000000000120                                                           109                      I02100620                                                 0013421505000000000000000000000000000000000000000000000000000000000000000000000000000000             00000000000000000000000000   10062000000000000000000000000                                                                    B3000120
10224127816000149006100198677                                 00006769            109000067697             I02100620100|371/9900006769            30062000000000100000013421505000000000000000000000000000000000000000000000000000000000000000000000000000000000000001000000000000000000000000000000   10062000000000000000000000000SAUL GUZ S/C AUDITORES INDEPEN                                      B3000121
22010720200000000000120                                                           109                      I02100620                                                 0013421505000000000000000000000000000000000000000000000000000000000000000000000000000000             00000000000000000000000000   10062000000000000000000000000                                                                    B3000122
10224127816000149006100198677                                 00006770            109000067707             I02100620710409956|00006770            29062000000000783580013421505000000000000000000000000000000000000000000000000000000000000000000000000000000000000007835800000000000000000000000000   10062000000000000000000000000SAUL GUZ S/C AUDITORES INDEPEN                                      B3000123
22300620200000000000120                                                           109                      I02100620                                                 0013421505000000000000000000000000000000000000000000000000000000000000000000000000000000             00000000000000000000000000   10062000000000000000000000000                                                                    B3000124
10224127816000149006100198677                                 00006771            109000067717             I02100620177251367|00006771            29062000000000783580013421505000000000000000000000000000000000000000000000000000000000000000000000000000000000000007835800000000000000000000000000   10062000000000000000000000000SAUL GUZ S/C AUDITORES INDEPEN                                      B3000125
22300620200000000000120                                                           109                      I02100620                                                 0013421505000000000000000000000000000000000000000000000000000000000000000000000000000000             00000000000000000000000000   10062000000000000000000000000                                                                    B3000126
10224127816000149006100198677                                 00006772            109000067727             I02100620537913349|00006772            29062000000000783580013421505000000000000000000000000000000000000000000000000000000000000000000000000000000000000007835800000000000000000000000000   10062000000000000000000000000SAUL GUZ S/C AUDITORES INDEPEN                                      B3000127
22300620200000000000120                                                           109                      I02100620                                                 0013421505000000000000000000000000000000000000000000000000000000000000000000000000000000             00000000000000000000000000   10062000000000000000000000000                                                                    B3000128
10224127816000149006100198677                                 00006773            109000067737             I02100620100|370/9900006773            29062000000000100000013421505000000000000000000000000000000000000000000000000000000000000000000000000000000000000001000000000000000000000000000000   10062000000000000000000000000SAUL GUZ S/C AUDITORES INDEPEN                                      B3000129
22300620200000000000120                                                           109                      I02100620                                                 0013421505000000000000000000000000000000000000000000000000000000000000000000000000000000             00000000000000000000000000   10062000000000000000000000000                                                                    B3000130
10224127816000149006100198677                                 00006774            109000067747             I02100620100|371/4800006774            29062000000000100000013421505000000000000000000000000000000000000000000000000000000000000000000000000000000000000001000000000000000000000000000000   10062000000000000000000000000SAUL GUZ S/C AUDITORES INDEPEN                                      B3000131
22300620200000000000120                                                           109                      I02100620                                                 0013421505000000000000000000000000000000000000000000000000000000000000000000000000000000             00000000000000000000000000   10062000000000000000000000000                                                                    B3000132
10224127816000149006100198677                                 00006775            109000067757             I0210062049666896|200006775            26062000000000783580013421505000000000000000000000000000000000000000000000000000000000000000000000000000000000000007835800000000000000000000000000   10062000000000000000000000000SAUL GUZ S/C AUDITORES INDEPEN                                      B3000133
22270620200000000000040                                                           109                      I02100620                                                 0013421505000000000000000000000000000000000000000000000000000000000000000000000000000000             00000000000000000000000000   10062000000000000000000000000                                                                    B3000134
10224127816000149006100198677                                 00006776            109000067767             I02100620938223604|00006776            26062000000000783580013421505000000000000000000000000000000000000000000000000000000000000000000000000000000000000007835800000000000000000000000000   10062000000000000000000000000SAUL GUZ S/C AUDITORES INDEPEN                                      B3000135
22270620200000000000040                                                           109                      I02100620                                                 0013421505000000000000000000000000000000000000000000000000000000000000000000000000000000             00000000000000000000000000   10062000000000000000000000000                                                                    B3000136
10224127816000149006100198677                                 00006777            109000067777             I02100620728380997|00006777            26062000000001044780013421505000000000000000000000000000000000000000000000000000000000000000000000000000000000000010447800000000000000000000000000   10062000000000000000000000000SAUL GUZ S/C AUDITORES INDEPEN                                      B3000137
22270620200000000000040                                                           109                      I02100620                                                 0013421505000000000000000000000000000000000000000000000000000000000000000000000000000000             00000000000000000000000000   10062000000000000000000000000                                                                    B3000138
10224127816000149006100198677                                 00006778            109000067787             I0210062090228598|200006778            26062000000001044780013421505000000000000000000000000000000000000000000000000000000000000000000000000000000000000010447800000000000000000000000000   10062000000000000000000000000SAUL GUZ S/C AUDITORES INDEPEN                                      B3000139
22270620200000000000040                                                           109                      I02100620                                                 0013421505000000000000000000000000000000000000000000000000000000000000000000000000000000             00000000000000000000000000   10062000000000000000000000000                                                                    B3000140
10224127816000149006100198677                                 00006779            109000067797             I02100620193790138|00006779            26062000000001044780013421505000000000000000000000000000000000000000000000000000000000000000000000000000000000000010447800000000000000000000000000   10062000000000000000000000000SAUL GUZ S/C AUDITORES INDEPEN                                      B3000141
22270620200000000000040                                                           109                      I02100620                                                 0013421505000000000000000000000000000000000000000000000000000000000000000000000000000000             00000000000000000000000000   10062000000000000000000000000                                                                    B3000142
10224127816000149006100198677                                 00006780            109000067807             I02100620639532403|00006780            26062000000000783580013421505000000000000000000000000000000000000000000000000000000000000000000000000000000000000007835800000000000000000000000000   10062000000000000000000000000SAUL GUZ S/C AUDITORES INDEPEN                                      B3000143
22270620200000000000040                                                           109                      I02100620                                                 0013421505000000000000000000000000000000000000000000000000000000000000000000000000000000             00000000000000000000000000   10062000000000000000000000000                                                                    B3000144
10224127816000149006100198677                                 00006781            109000067817             I02100620632666306|00006781            26062000000000783580013421505000000000000000000000000000000000000000000000000000000000000000000000000000000000000007835800000000000000000000000000   10062000000000000000000000000SAUL GUZ S/C AUDITORES INDEPEN                                      B3000145
22270620200000000000040                                                           109                      I02100620                                                 0013421505000000000000000000000000000000000000000000000000000000000000000000000000000000             00000000000000000000000000   10062000000000000000000000000                                                                    B3000146
10224127816000149006100198677                                 00006782            109000067827             I02100620471393419|00006782            26062000000000783580013421505000000000000000000000000000000000000000000000000000000000000000000000000000000000000007835800000000000000000000000000   10062000000000000000000000000SAUL GUZ S/C AUDITORES INDEPEN                                      B3000147
22270620200000000000040                                                           109                      I02100620                                                 0013421505000000000000000000000000000000000000000000000000000000000000000000000000000000             00000000000000000000000000   10062000000000000000000000000                                                                    B3000148
10224127816000149006100198677                                 00006783            109000067837             I02100620888807276|00006783            26062000000001044780013421505000000000000000000000000000000000000000000000000000000000000000000000000000000000000010447800000000000000000000000000   10062000000000000000000000000SAUL GUZ S/C AUDITORES INDEPEN                                      B3000149
22270620200000000000040                                                           109                      I02100620                                                 0013421505000000000000000000000000000000000000000000000000000000000000000000000000000000             00000000000000000000000000   10062000000000000000000000000                                                                    B3000150
10224127816000149006100198677                                 00006784            109000067847             I02100620568996449|00006784            26062000000001044780013421505000000000000000000000000000000000000000000000000000000000000000000000000000000000000010447800000000000000000000000000   10062000000000000000000000000SAUL GUZ S/C AUDITORES INDEPEN                                      B3000151
22270620200000000000040                                                           109                      I02100620                                                 0013421505000000000000000000000000000000000000000000000000000000000000000000000000000000             00000000000000000000000000   10062000000000000000000000000                                                                    B3000152
10224127816000149006100198677                                 00006785            109000067857             I02100620274168746|00006785            26062000000001044780013421505000000000000000000000000000000000000000000000000000000000000000000000000000000000000010447800000000000000000000000000   10062000000000000000000000000SAUL GUZ S/C AUDITORES INDEPEN                                      B3000153
22270620200000000000040                                                           109                      I02100620                                                 0013421505000000000000000000000000000000000000000000000000000000000000000000000000000000             00000000000000000000000000   10062000000000000000000000000                                                                    B3000154
10224127816000149006100198677                                 00006786            109000067867             I02100620128656524|00006786            26062000000001044780013421505000000000000000000000000000000000000000000000000000000000000000000000000000000000000010447800000000000000000000000000   10062000000000000000000000000SAUL GUZ S/C AUDITORES INDEPEN                                      B3000155
22270620200000000000040                                                           109                      I02100620                                                 0013421505000000000000000000000000000000000000000000000000000000000000000000000000000000             00000000000000000000000000   10062000000000000000000000000                                                                    B3000156
10224127816000149006100198677                                 00006787            109000067877             I02100620583268485|00006787            26062000000000783580013421505000000000000000000000000000000000000000000000000000000000000000000000000000000000000007835800000000000000000000000000   10062000000000000000000000000SAUL GUZ S/C AUDITORES INDEPEN                                      B3000157
22270620200000000000040                                                           109                      I02100620                                                 0013421505000000000000000000000000000000000000000000000000000000000000000000000000000000             00000000000000000000000000   10062000000000000000000000000                                                                    B3000158
10224127816000149006100198677                                 00006788            109000067887             I02100620157880075|00006788            26062000000001044780013421505000000000000000000000000000000000000000000000000000000000000000000000000000000000000010447800000000000000000000000000   10062000000000000000000000000SAUL GUZ S/C AUDITORES INDEPEN                                      B3000159
22270620200000000000040                                                           109                      I02100620                                                 0013421505000000000000000000000000000000000000000000000000000000000000000000000000000000             00000000000000000000000000   10062000000000000000000000000                                                                    B3000160
10224127816000149006100198677                                 00006789            109000067897             I02100620329789928|00006789            26062000000001044780013421505000000000000000000000000000000000000000000000000000000000000000000000000000000000000010447800000000000000000000000000   10062000000000000000000000000SAUL GUZ S/C AUDITORES INDEPEN                                      B3000161
22270620200000000000040                                                           109                      I02100620                                                 0013421505000000000000000000000000000000000000000000000000000000000000000000000000000000             00000000000000000000000000   10062000000000000000000000000                                                                    B3000162
10224127816000149006100198677                                 00006790            109000067907             I02100620206543774|00006790            26062000000000783580013421505000000000000000000000000000000000000000000000000000000000000000000000000000000000000007835800000000000000000000000000   10062000000000000000000000000SAUL GUZ S/C AUDITORES INDEPEN                                      B3000163
22270620200000000000040                                                           109                      I02100620                                                 0013421505000000000000000000000000000000000000000000000000000000000000000000000000000000             00000000000000000000000000   10062000000000000000000000000                                                                    B3000164
10224127816000149006100198677                                 00006791            109000067917             I02100620818229813|00006791            26062000000000783580013421505000000000000000000000000000000000000000000000000000000000000000000000000000000000000007835800000000000000000000000000   10062000000000000000000000000SAUL GUZ S/C AUDITORES INDEPEN                                      B3000165
22270620200000000000040                                                           109                      I02100620                                                 0013421505000000000000000000000000000000000000000000000000000000000000000000000000000000             00000000000000000000000000   10062000000000000000000000000                                                                    B3000166
10224127816000149006100198677                                 00006792            109000067927             I02100620688464782|00006792            26062000000001044780013421505000000000000000000000000000000000000000000000000000000000000000000000000000000000000010447800000000000000000000000000   10062000000000000000000000000SAUL GUZ S/C AUDITORES INDEPEN                                      B3000167
22270620200000000000040                                                           109                      I02100620                                                 0013421505000000000000000000000000000000000000000000000000000000000000000000000000000000             00000000000000000000000000   10062000000000000000000000000                                                                    B3000168
10224127816000149006100198677                                 00006793            109000067937             I02100620776543286|00006793            26062000000000783580013421505000000000000000000000000000000000000000000000000000000000000000000000000000000000000007835800000000000000000000000000   10062000000000000000000000000SAUL GUZ S/C AUDITORES INDEPEN                                      B3000169
22270620200000000000040                                                           109                      I02100620                                                 0013421505000000000000000000000000000000000000000000000000000000000000000000000000000000             00000000000000000000000000   10062000000000000000000000000                                                                    B3000170
10224127816000149006100198677                                 00006794            109000067947             I02100620983064895|00006794            26062000000001044780013421505000000000000000000000000000000000000000000000000000000000000000000000000000000000000010447800000000000000000000000000   10062000000000000000000000000SAUL GUZ S/C AUDITORES INDEPEN                                      B3000171
22270620200000000000040                                                           109                      I02100620                                                 0013421505000000000000000000000000000000000000000000000000000000000000000000000000000000             00000000000000000000000000   10062000000000000000000000000                                                                    B3000172
10224127816000149006100198677                                 00006795            109000067957             I02100620684303662|00006795            26062000000001044780013421505000000000000000000000000000000000000000000000000000000000000000000000000000000000000010447800000000000000000000000000   10062000000000000000000000000SAUL GUZ S/C AUDITORES INDEPEN                                      B3000173
22270620200000000000040                                                           109                      I02100620                                                 0013421505000000000000000000000000000000000000000000000000000000000000000000000000000000             00000000000000000000000000   10062000000000000000000000000                                                                    B3000174
10224127816000149006100198677                                 00006796            109000067967             I02100620666918612|00006796            26062000000000783580013421505000000000000000000000000000000000000000000000000000000000000000000000000000000000000007835800000000000000000000000000   10062000000000000000000000000SAUL GUZ S/C AUDITORES INDEPEN                                      B3000175
22270620200000000000040                                                           109                      I02100620                                                 0013421505000000000000000000000000000000000000000000000000000000000000000000000000000000             00000000000000000000000000   10062000000000000000000000000                                                                    B3000176
10224127816000149006100198677                                 00006797            109000067977             I02100620831562254|00006797            26062000000001044780013421505000000000000000000000000000000000000000000000000000000000000000000000000000000000000010447800000000000000000000000000   10062000000000000000000000000SAUL GUZ S/C AUDITORES INDEPEN                                      B3000177
22270620200000000000040                                                           109                      I02100620                                                 0013421505000000000000000000000000000000000000000000000000000000000000000000000000000000             00000000000000000000000000   10062000000000000000000000000                                                                    B3000178
10224127816000149006100198677                                 00006798            109000067987             I0210062066713645|200006798            26062000000001044780013421505000000000000000000000000000000000000000000000000000000000000000000000000000000000000010447800000000000000000000000000   10062000000000000000000000000SAUL GUZ S/C AUDITORES INDEPEN                                      B3000179
22270620200000000000040                                                           109                      I02100620                                                 0013421505000000000000000000000000000000000000000000000000000000000000000000000000000000             00000000000000000000000000   10062000000000000000000000000                                                                    B3000180
10224127816000149006100198677                                 00006799            109000067997             I02100620830036756|00006799            26062000000000783580013421505000000000000000000000000000000000000000000000000000000000000000000000000000000000000007835800000000000000000000000000   10062000000000000000000000000SAUL GUZ S/C AUDITORES INDEPEN                                      B3000181
22270620200000000000040                                                           109                      I02100620                                                 0013421505000000000000000000000000000000000000000000000000000000000000000000000000000000             00000000000000000000000000   10062000000000000000000000000                                                                    B3000182
10224127816000149006100198677                                 00006800            109000068007             I02100620940537546|00006800            26062000000000783580013421505000000000000000000000000000000000000000000000000000000000000000000000000000000000000007835800000000000000000000000000   10062000000000000000000000000SAUL GUZ S/C AUDITORES INDEPEN                                      B3000183
22270620200000000000040                                                           109                      I02100620                                                 0013421505000000000000000000000000000000000000000000000000000000000000000000000000000000             00000000000000000000000000   10062000000000000000000000000                                                                    B3000184
10224127816000149006100198677                                 00006801            109000068017             I02100620174601677|00006801            26062000000001044780013421505000000000000000000000000000000000000000000000000000000000000000000000000000000000000010447800000000000000000000000000   10062000000000000000000000000SAUL GUZ S/C AUDITORES INDEPEN                                      B3000185
22270620200000000000040                                                           109                      I02100620                                                 0013421505000000000000000000000000000000000000000000000000000000000000000000000000000000             00000000000000000000000000   10062000000000000000000000000                                                                    B3000186
10224127816000149006100198677                                 00006802            109000068027             I02100620987603304|00006802            26062000000000783580013421505000000000000000000000000000000000000000000000000000000000000000000000000000000000000007835800000000000000000000000000   10062000000000000000000000000SAUL GUZ S/C AUDITORES INDEPEN                                      B3000187
22270620200000000000040                                                           109                      I02100620                                                 0013421505000000000000000000000000000000000000000000000000000000000000000000000000000000             00000000000000000000000000   10062000000000000000000000000                                                                    B3000188
10224127816000149006100198677                                 00006803            109000068037             I02100620797869236|00006803            26062000000000783580013421505000000000000000000000000000000000000000000000000000000000000000000000000000000000000007835800000000000000000000000000   10062000000000000000000000000SAUL GUZ S/C AUDITORES INDEPEN                                      B3000189
22270620200000000000040                                                           109                      I02100620                                                 0013421505000000000000000000000000000000000000000000000000000000000000000000000000000000             00000000000000000000000000   10062000000000000000000000000                                                                    B3000190
10224127816000149006100198677                                 00006804            109000068047             I02100620562143977|00006804            26062000000000783580013421505000000000000000000000000000000000000000000000000000000000000000000000000000000000000007835800000000000000000000000000   10062000000000000000000000000SAUL GUZ S/C AUDITORES INDEPEN                                      B3000191
22270620200000000000040                                                           109                      I02100620                                                 0013421505000000000000000000000000000000000000000000000000000000000000000000000000000000             00000000000000000000000000   10062000000000000000000000000                                                                    B3000192
10224127816000149006100198677                                 00006805            109000068057             I02100620379947584|00006805            26062000000000783580013421505000000000000000000000000000000000000000000000000000000000000000000000000000000000000007835800000000000000000000000000   10062000000000000000000000000SAUL GUZ S/C AUDITORES INDEPEN                                      B3000193
22270620200000000000040                                                           109                      I02100620                                                 0013421505000000000000000000000000000000000000000000000000000000000000000000000000000000             00000000000000000000000000   10062000000000000000000000000                                                                    B3000194
10224127816000149006100198677                                 00006806            109000068067             I02100620886168025|00006806            26062000000000783580013421505000000000000000000000000000000000000000000000000000000000000000000000000000000000000007835800000000000000000000000000   10062000000000000000000000000SAUL GUZ S/C AUDITORES INDEPEN                                      B3000195
22270620200000000000040                                                           109                      I02100620                                                 0013421505000000000000000000000000000000000000000000000000000000000000000000000000000000             00000000000000000000000000   10062000000000000000000000000                                                                    B3000196
10224127816000149006100198677                                 00006807            109000068077             I02100620851918051|00006807            26062000000000783580013421505000000000000000000000000000000000000000000000000000000000000000000000000000000000000007835800000000000000000000000000   10062000000000000000000000000SAUL GUZ S/C AUDITORES INDEPEN                                      B3000197
22270620200000000000040                                                           109                      I02100620                                                 0013421505000000000000000000000000000000000000000000000000000000000000000000000000000000             00000000000000000000000000   10062000000000000000000000000                                                                    B3000198
10224127816000149006100198677                                 00006808            109000068087             I02100620822100636|00006808            26062000000001044780013421505000000000000000000000000000000000000000000000000000000000000000000000000000000000000010447800000000000000000000000000   10062000000000000000000000000SAUL GUZ S/C AUDITORES INDEPEN                                      B3000199
22270620200000000000040                                                           109                      I02100620                                                 0013421505000000000000000000000000000000000000000000000000000000000000000000000000000000             00000000000000000000000000   10062000000000000000000000000                                                                    B3000200
10224127816000149006100198677                                 00006809            109000068097             I02100620602605911|00006809            26062000000001044780013421505000000000000000000000000000000000000000000000000000000000000000000000000000000000000010447800000000000000000000000000   10062000000000000000000000000SAUL GUZ S/C AUDITORES INDEPEN                                      B3000201
22270620200000000000040                                                           109                      I02100620                                                 0013421505000000000000000000000000000000000000000000000000000000000000000000000000000000             00000000000000000000000000   10062000000000000000000000000                                                                    B3000202
10224127816000149006100198677                                 00006810            109000068107             I02100620971359732|00006810            26062000000001044780013421505000000000000000000000000000000000000000000000000000000000000000000000000000000000000010447800000000000000000000000000   10062000000000000000000000000SAUL GUZ S/C AUDITORES INDEPEN                                      B3000203
22270620200000000000040                                                           109                      I02100620                                                 0013421505000000000000000000000000000000000000000000000000000000000000000000000000000000             00000000000000000000000000   10062000000000000000000000000                                                                    B3000204
10224127816000149006100198677                                 00006811            109000068117             I02100620868077861|00006811            26062000000000783580013421505000000000000000000000000000000000000000000000000000000000000000000000000000000000000007835800000000000000000000000000   10062000000000000000000000000SAUL GUZ S/C AUDITORES INDEPEN                                      B3000205
22270620200000000000040                                                           109                      I02100620                                                 0013421505000000000000000000000000000000000000000000000000000000000000000000000000000000             00000000000000000000000000   10062000000000000000000000000                                                                    B3000206
10224127816000149006100198677                                 00006812            109000068127             I0210062038104799|200006812            26062000000001044780013421505000000000000000000000000000000000000000000000000000000000000000000000000000000000000010447800000000000000000000000000   10062000000000000000000000000SAUL GUZ S/C AUDITORES INDEPEN                                      B3000207
22270620200000000000040                                                           109                      I02100620                                                 0013421505000000000000000000000000000000000000000000000000000000000000000000000000000000             00000000000000000000000000   10062000000000000000000000000                                                                    B3000208
10224127816000149006100198677                                 00006813            109000068137             I02100620472483760|00006813            26062000000001044780013421505000000000000000000000000000000000000000000000000000000000000000000000000000000000000010447800000000000000000000000000   10062000000000000000000000000SAUL GUZ S/C AUDITORES INDEPEN                                      B3000209
22270620200000000000040                                                           109                      I02100620                                                 0013421505000000000000000000000000000000000000000000000000000000000000000000000000000000             00000000000000000000000000   10062000000000000000000000000                                                                    B3000210
10224127816000149006100198677                                 00006814            109000068147             I02100620939839506|00006814            26062000000000783580013421505000000000000000000000000000000000000000000000000000000000000000000000000000000000000007835800000000000000000000000000   10062000000000000000000000000SAUL GUZ S/C AUDITORES INDEPEN                                      B3000211
22270620200000000000040                                                           109                      I02100620                                                 0013421505000000000000000000000000000000000000000000000000000000000000000000000000000000             00000000000000000000000000   10062000000000000000000000000                                                                    B3000212
10224127816000149006100198677                                 00006815            109000068157             I02100620893479193|00006815            26062000000001044780013421505000000000000000000000000000000000000000000000000000000000000000000000000000000000000010447800000000000000000000000000   10062000000000000000000000000SAUL GUZ S/C AUDITORES INDEPEN                                      B3000213
22270620200000000000040                                                           109                      I02100620                                                 0013421505000000000000000000000000000000000000000000000000000000000000000000000000000000             00000000000000000000000000   10062000000000000000000000000                                                                    B3000214
10224127816000149006100198677                                 00006816            109000068167             I02100620718583740|00006816            26062000000001044780013421505000000000000000000000000000000000000000000000000000000000000000000000000000000000000010447800000000000000000000000000   10062000000000000000000000000SAUL GUZ S/C AUDITORES INDEPEN                                      B3000215
22270620200000000000040                                                           109                      I02100620                                                 0013421505000000000000000000000000000000000000000000000000000000000000000000000000000000             00000000000000000000000000   10062000000000000000000000000                                                                    B3000216
10224127816000149006100198677                                 00006817            109000068177             I02100620100|369/9900006817            26062000000000100000013421505000000000000000000000000000000000000000000000000000000000000000000000000000000000000001000000000000000000000000000000   10062000000000000000000000000SAUL GUZ S/C AUDITORES INDEPEN                                      B3000217
22270620200000000000040                                                           109                      I02100620                                                 0013421505000000000000000000000000000000000000000000000000000000000000000000000000000000             00000000000000000000000000   10062000000000000000000000000                                                                    B3000218
10224127816000149006100198677                                 00006818            109000068187             I02100620100|370/4800006818            26062000000000100000013421505000000000000000000000000000000000000000000000000000000000000000000000000000000000000001000000000000000000000000000000   10062000000000000000000000000SAUL GUZ S/C AUDITORES INDEPEN                                      B3000219
22270620200000000000040                                                           109                      I02100620                                                 0013421505000000000000000000000000000000000000000000000000000000000000000000000000000000             00000000000000000000000000   10062000000000000000000000000                                                                    B3000220
10224127816000149006100198677                                 00006819            109000068197             I0210062029430346|200006819            25062000000001044780013421505000000000000000000000000000000000000000000000000000000000000000000000000000000000000010447800000000000000000000000000   10062000000000000000000000000SAUL GUZ S/C AUDITORES INDEPEN                                      B3000221
22260620200000000000040                                                           109                      I02100620                                                 0013421505000000000000000000000000000000000000000000000000000000000000000000000000000000             00000000000000000000000000   10062000000000000000000000000                                                                    B3000222
10224127816000149006100198677                                 00006820            109000068207             I02100620942303326|00006820            25062000000001044780013421505000000000000000000000000000000000000000000000000000000000000000000000000000000000000010447800000000000000000000000000   10062000000000000000000000000SAUL GUZ S/C AUDITORES INDEPEN                                      B3000223
22260620200000000000040                                                           109                      I02100620                                                 0013421505000000000000000000000000000000000000000000000000000000000000000000000000000000             00000000000000000000000000   10062000000000000000000000000                                                                    B3000224
10224127816000149006100198677                                 00006821            109000068217             I02100620473775390|00006821            25062000000001044780013421505000000000000000000000000000000000000000000000000000000000000000000000000000000000000010447800000000000000000000000000   10062000000000000000000000000SAUL GUZ S/C AUDITORES INDEPEN                                      B3000225
22260620200000000000040                                                           109                      I02100620                                                 0013421505000000000000000000000000000000000000000000000000000000000000000000000000000000             00000000000000000000000000   10062000000000000000000000000                                                                    B3000226
10224127816000149006100198677                                 00006822            109000068227             I02100620245892491|00006822            25062000000001044780013421505000000000000000000000000000000000000000000000000000000000000000000000000000000000000010447800000000000000000000000000   10062000000000000000000000000SAUL GUZ S/C AUDITORES INDEPEN                                      B3000227
22260620200000000000040                                                           109                      I02100620                                                 0013421505000000000000000000000000000000000000000000000000000000000000000000000000000000             00000000000000000000000000   10062000000000000000000000000                                                                    B3000228
10224127816000149006100198677                                 00006823            109000068237             I02100620639057881|00006823            25062000000001044780013421505000000000000000000000000000000000000000000000000000000000000000000000000000000000000010447800000000000000000000000000   10062000000000000000000000000SAUL GUZ S/C AUDITORES INDEPEN                                      B3000229
22260620200000000000040                                                           109                      I02100620                                                 0013421505000000000000000000000000000000000000000000000000000000000000000000000000000000             00000000000000000000000000   10062000000000000000000000000                                                                    B3000230
10224127816000149006100198677                                 00006824            109000068247             I02100620756582116|00006824            25062000000001044780013421505000000000000000000000000000000000000000000000000000000000000000000000000000000000000010447800000000000000000000000000   10062000000000000000000000000SAUL GUZ S/C AUDITORES INDEPEN                                      B3000231
22260620200000000000040                                                           109                      I02100620                                                 0013421505000000000000000000000000000000000000000000000000000000000000000000000000000000             00000000000000000000000000   10062000000000000000000000000                                                                    B3000232
10224127816000149006100198677                                 00006825            109000068257             I02100620139674439|00006825            25062000000001044780013421505000000000000000000000000000000000000000000000000000000000000000000000000000000000000010447800000000000000000000000000   10062000000000000000000000000SAUL GUZ S/C AUDITORES INDEPEN                                      B3000233
22260620200000000000040                                                           109                      I02100620                                                 0013421505000000000000000000000000000000000000000000000000000000000000000000000000000000             00000000000000000000000000   10062000000000000000000000000                                                                    B3000234
10224127816000149006100198677                                 00006826            109000068267             I02100620419277873|00006826            25062000000001044780013421505000000000000000000000000000000000000000000000000000000000000000000000000000000000000010447800000000000000000000000000   10062000000000000000000000000SAUL GUZ S/C AUDITORES INDEPEN                                      B3000235
22260620200000000000040                                                           109                      I02100620                                                 0013421505000000000000000000000000000000000000000000000000000000000000000000000000000000             00000000000000000000000000   10062000000000000000000000000                                                                    B3000236
10224127816000149006100198677                                 00006827            109000068277             I02100620347280240|00006827            25062000000001044780013421505000000000000000000000000000000000000000000000000000000000000000000000000000000000000010447800000000000000000000000000   10062000000000000000000000000SAUL GUZ S/C AUDITORES INDEPEN                                      B3000237
22260620200000000000040                                                           109                      I02100620                                                 0013421505000000000000000000000000000000000000000000000000000000000000000000000000000000             00000000000000000000000000   10062000000000000000000000000                                                                    B3000238
10224127816000149006100198677                                 00006828            109000068287             I02100620404770265|00006828            25062000000001044780013421505000000000000000000000000000000000000000000000000000000000000000000000000000000000000010447800000000000000000000000000   10062000000000000000000000000SAUL GUZ S/C AUDITORES INDEPEN                                      B3000239
22260620200000000000040                                                           109                      I02100620                                                 0013421505000000000000000000000000000000000000000000000000000000000000000000000000000000             00000000000000000000000000   10062000000000000000000000000                                                                    B3000240
10224127816000149006100198677                                 00006829            109000068297             I02100620413894994|00006829            25062000000001044780013421505000000000000000000000000000000000000000000000000000000000000000000000000000000000000010447800000000000000000000000000   10062000000000000000000000000SAUL GUZ S/C AUDITORES INDEPEN                                      B3000241
22260620200000000000040                                                           109                      I02100620                                                 0013421505000000000000000000000000000000000000000000000000000000000000000000000000000000             00000000000000000000000000   10062000000000000000000000000                                                                    B3000242
10224127816000149006100198677                                 00006830            109000068307             I02100620916413673|00006830            25062000000001044780013421505000000000000000000000000000000000000000000000000000000000000000000000000000000000000010447800000000000000000000000000   10062000000000000000000000000SAUL GUZ S/C AUDITORES INDEPEN                                      B3000243
22260620200000000000040                                                           109                      I02100620                                                 0013421505000000000000000000000000000000000000000000000000000000000000000000000000000000             00000000000000000000000000   10062000000000000000000000000                                                                    B3000244
10224127816000149006100198677                                 00006831            109000068317             I02100620533049525|00006831            25062000000001044780013421505000000000000000000000000000000000000000000000000000000000000000000000000000000000000010447800000000000000000000000000   10062000000000000000000000000SAUL GUZ S/C AUDITORES INDEPEN                                      B3000245
22260620200000000000040                                                           109                      I02100620                                                 0013421505000000000000000000000000000000000000000000000000000000000000000000000000000000             00000000000000000000000000   10062000000000000000000000000                                                                    B3000246
10224127816000149006100198677                                 00006832            109000068327             I02100620467321678|00006832            25062000000001044780013421505000000000000000000000000000000000000000000000000000000000000000000000000000000000000010447800000000000000000000000000   10062000000000000000000000000SAUL GUZ S/C AUDITORES INDEPEN                                      B3000247
22260620200000000000040                                                           109                      I02100620                                                 0013421505000000000000000000000000000000000000000000000000000000000000000000000000000000             00000000000000000000000000   10062000000000000000000000000                                                                    B3000248
